020920240000000011F
C  0000000000028983930507301860080000000000010720240110202400000048010000120000014151415-San Cristobal - HOGAR - Clientes                       000000014SAN CRISTOBAL SOC MUTUAL DE SEGUROS GENERALES                                                       000141504Plan 4                                            09062011000000540CASA CENTRAL                  000000540CASA CENTRAL                  1                             1 - SUCURSAL                  0         USUARIO i-SOL                                     0006Tarjeta de crédito en Pesos                                                     00000000000000002307306214508430021013816000000000000000003VISA ARGENTINA                                    0315                                                                                                                                                                                                                                                               000141512ZONA UNICA                    BE                                                                                000000000000000000000000000104PROBLEMAS ECONÓMICOS                                                                                02092024            0000000000
C  0000000000037850440107302845300000000000060820240611202400000048010000120000014151415-San Cristobal - HOGAR - Clientes                       000000014SAN CRISTOBAL SOC MUTUAL DE SEGUROS GENERALES                                                       000141504Plan 4                                            06052013000000369SAN LORENZO                   000000369SAN LORENZO                   1                             1 - SUCURSAL                  5785      RACAMATO TERESA SILVIA                            0006Tarjeta de crédito en Pesos                                                     00000000000000001931524784508438002159029000000000000000003VISA ARGENTINA                                    0916                                                                                                                                                                                                                                                               000141512ZONA UNICA                    BE                                                                                000000000000000000000000000104PROBLEMAS ECONÓMICOS                                                                                02092024            0000000000
C  0000000000050219700807301011010000000000230220242302202500000017010000120000014151415-San Cristobal - HOGAR - Clientes                       000000014SAN CRISTOBAL SOC MUTUAL DE SEGUROS GENERALES                                                       000141501Plan 1                                            23022016000000170PLAZA BELGRANO                000000170PLAZA BELGRANO                1                             1 - SUCURSAL                  3738      AVILA MARTA SILVINA                               0004Débito automático en Caja de Ahorros en Pesos                                   41000948185719600000000000000000000000000000000100000000000                                                  0000                                                                                                                                                                                                                                                               000141512ZONA UNICA                    BE                                                                                000000000000000000000000000110CAMBIO A OTRO PRODUCTO DE SEGURO                                                                    02092024            0000000000
C  0000000000054632750207301243900000000000021220230212202400000017010000120000014151415-San Cristobal - HOGAR - Clientes                       000000014SAN CRISTOBAL SOC MUTUAL DE SEGUROS GENERALES                                                       000141501Plan 1                                            02122016000000883HUMBOLDT                      000000883HUMBOLDT                      1                             1 - SUCURSAL                  8015      ZEHNDER WALTER DIEGO                              0004Débito automático en Caja de Ahorros en Pesos                                   48830000562240600000000000000000000000000000000883000000000                                                  0000                                                                                                                                                                                                                                                               000141512ZONA UNICA                    BE                                                                                000000000000000000000000000105CIERRE DE CUENTA                                                                                    02092024            0000000000
C  0000000000076785410807301089740000000000130820241311202400000048010000120000014151415-San Cristobal - HOGAR - Clientes                       000000014SAN CRISTOBAL SOC MUTUAL DE SEGUROS GENERALES                                                       000141504Plan 4                                            13052015000000641SHOPING DEL JARDÍN            000000641SHOPING DEL JARDÍN            1                             1 - SUCURSAL                  23123     CHAPES NATALIA SOLEDAD                            0004Débito automático en Caja de Ahorros en Pesos                                   46000800797246700000000000000000000000000000000600000000000                                                  0000                                                                                                                                                                                                                                                               000141512ZONA UNICA                    BE                                                                                000000000000000000000000000104PROBLEMAS ECONÓMICOS                                                                                02092024            0000000000
C  0000000000077221450807300964600000000000031020230310202400000017010000120000014151415-San Cristobal - HOGAR - Clientes                       000000014SAN CRISTOBAL SOC MUTUAL DE SEGUROS GENERALES                                                       000141501Plan 1                                            03102016000000629HIPER LIBERTAD 1              000000629HIPER LIBERTAD 1              1                             1 - SUCURSAL                  33856     FERNANDEZ ELISA URBANA                            0006Tarjeta de crédito en Pesos                                                     00000000000000005066433254508430036378642000000000000000003VISA ARGENTINA                                    0821                                                                                                                                                                                                                                                               000141512ZONA UNICA                    BE                                                                                000000000000000000000000000104PROBLEMAS ECONÓMICOS                                                                                02092024            0000000000
C  0000000000085899950101316466080000000000300720243001202500000389400000060000012871287 - Prendarios Vehículos - San Cristobal - Empresas      000000014SAN CRISTOBAL SOC MUTUAL DE SEGUROS GENERALES                                                       000128704Plan 6 - Cob Cmas                                 30072021000000712ARTEAGA                       000000712ARTEAGA                       1                             1 - SUCURSAL                  7441      PAOLOROSSI CLAUDIO ANDRES                         0009Préstamos                                                                       00000000000000000000000000000000000000000000000000000000000                                                  0000                                                                                                                                                                                                                                                               000128708H-INTERIOR DEL PAIS           BE                                                                                000000000000000000000000000140PRESTAMO CANCELADO                                                                                  29082024            0000000000
C  0000000000086218480801306001370000000000060320240609202400000314760000060000012871287 - Prendarios Vehículos - San Cristobal - Empresas      000000014SAN CRISTOBAL SOC MUTUAL DE SEGUROS GENERALES                                                       000128702Plan 4 - Cob C                                    06092021000000103ORAN                          000000103ORAN                          1                             1 - SUCURSAL                  6985      IBARRA AGUIRRE ANDREA DEOLINDA                    0009Préstamos                                                                       00000000000000000000000000000000000000000000000000000000000                                                  0000                                                                                                                                                                                                                                                               000128708H-INTERIOR DEL PAIS           BE                                                                                000000000000000000000000000119PRÉSTAMO CANCELADO B. Empresa                                                                       30082024            0000000000
C  0000000000086218580801306001280000000000060320240609202400000314760000060000012871287 - Prendarios Vehículos - San Cristobal - Empresas      000000014SAN CRISTOBAL SOC MUTUAL DE SEGUROS GENERALES                                                       000128702Plan 4 - Cob C                                    06092021000000103ORAN                          000000103ORAN                          1                             1 - SUCURSAL                  1533      MUSA ZAIRA GRACIELA                               0009Préstamos                                                                       00000000000000000000000000000000000000000000000000000000000                                                  0000                                                                                                                                                                                                                                                               000128708H-INTERIOR DEL PAIS           BE                                                                                000000000000000000000000000119PRÉSTAMO CANCELADO B. Empresa                                                                       30082024            0000000000
020920240000000011F00000000000012139800
